:100000000C9434000C9451000C9451000C94510049
:100010000C9451000C9451000C9451000C9451001C
:100020000C9451000C9451000C9451000C9451000C
:100030000C9451000C9451000C9451000C945100FC
:100040000C9451000C9451000C9451000C945100EC
:100050000C9451000C9451000C9451000C945100DC
:100060000C94BD000C94510011241FBECFEFD8E0BA
:10007000DEBFCDBF11E0A0E0B1E0EAE4F3E002C0F2
:1000800005900D92A032B107D9F721E0A0E2B1E0CE
:1000900001C01D92A732B207E1F70E944A010C94F9
:1000A000A3010C9400008CE284B981E78CBD089513
:1000B0008EBD0DB407FEFDCF8EB508950C9458008B
:1000C00084E88093B8008FEF8093BB0084E0809336
:1000D000BC0008958091BC00817008958091BC009F
:1000E00080FDFCCF809100010895FC018091BC004F
:1000F00080FDFCCF6093220180818093230180FFEB
:1001000015C01092210188EF8093000185EA809349
:10011000BC000895DF01A80FB91F2C91DC01AD5D73
:10012000BE4F2C9301968617A8F3EBCF90E080E0AA
:10013000F9CF8091BC0080FDFCCF1092210188EFA7
:100140008093000185EA8093BC0008952091BC0053
:1001500020FDFCCF2091210120FF08C023E231E0E7
:10016000FC01D9018A2F821B861720F08091210182
:10017000817008958D918193F5CF1F921FB61F92C4
:1001800011242F938F939F93EF93FF938091B90046
:10019000883309F45DC010F5883169F050F4883077
:1001A000C1F18031B1F18091B9008093000184E008
:1001B00025C08832C1F7E091200180912201E81723
:1001C00008F03FC081E08E0F80932001F0E0ED5DEC
:1001D000FE4F80818093BB0085E810C08035E1F040
:1001E000883539F18034F9F620912001809122017F
:1001F0008150990B281719067CF785EC8093BC0079
:10020000FF91EF919F918F912F911F901FBE1F9093
:10021000189510922001CFCFE091200181E08E0F40
:10022000809320018091BB00F0E0ED5DFE4F808364
:10023000DBCF8091BB00E0912001F0E0ED5DFE4F4F
:1002400080838091210181608093210184E9D6CF50
:1002500085EAD4CF81E091E00895E0ECF0E0958369
:100260008483108288E9818386E082830895909157
:10027000C00095FFFCCF8093C60008950E9437010F
:1002800090E080E008958091C00087FFFCCF8091CE
:10029000C600089587E084B988EF85B98EEF8AB9E2
:1002A00081E08BB980E00E94760180E00E948E019F
:1002B000FFCFE82FF0E0E15FFE4F208187E090E084
:1002C00030E0A901082E02C0559547950A94E2F73F
:1002D00040FF0AC0289A299A45E34A95F1F70000A1
:1002E0002998019770F708952898F5CFCF93C82FD4
:1002F00082958F700E9459012A9A85E38A95F1F7B9
:1003000000002A988C2F8F700E9459012A9A85E349
:100310008A95F1F700002A98CF910895CF93C82FBE
:100320004899FECFCF5F8C2F0E9476012FEF83EC90
:1003300099E0215080409040E1F700C00000CF3F9D
:0A03400079F7CF910895F894FFCFEC
:10034A00F800000002000000003E0100000000402A
:10035A0079243019120278001808034621060E0083
:00000001FF
