:100000000C9434000C9451000C9451000C94800119
:100010000C9451000C9451000C9451000C9451001C
:100020000C9451000C9451000C943F010C9451001D
:100030000C9451000C9451000C9451000C945100FC
:100040000C9451000C9451000C943D010C945100FF
:100050000C943E010C94D5010C9451000C94510069
:100060000C94B0000C94510011241FBECFEFD8E0C7
:10007000DEBFCDBF11E0A0E0B1E0E8E8F5E002C0EE
:1000800005900D92A431B107D9F721E0A4E1B1E0C8
:1000900001C01D92AD32B207E1F70E944B020C94F1
:1000A000C2020C94000084E88093B8008FEF809324
:1000B000BB0084E08093BC0008958091BC008170F7
:1000C00008958091BC0080FDFCCF809100010895CF
:1000D000FC018091BC0080FDFCCF60931601808103
:1000E0008093170180FF15C01092150188EF80934F
:1000F000000185EA8093BC000895DF01A80FB91FB5
:100100002C91DC01A95EBE4F2C9301968617A8F3B3
:10011000EBCF90E080E0F9CF8091BC0080FDFCCF78
:100120001092150188EF8093000185EA8093BC004E
:1001300008952091BC0020FDFCCF2091150120FFE7
:1001400008C027E131E0FC01D9018A2F821B861704
:1001500020F080911501817008958D918193F5CFE4
:100160001F921FB61F9211242F938F939F93EF938B
:10017000FF938091B900883309F45DC010F5883190
:1001800069F050F48830C1F18031B1F18091B9004B
:100190008093000184E025C08832C1F7E09114010A
:1001A00080911601E81708F03FC081E08E0F809320
:1001B0001401F0E0E95EFE4F80818093BB0085E88A
:1001C00010C08035E1F0883539F18034F9F620919E
:1001D0001401809116018150990B281719067CF79C
:1001E00085EC8093BC00FF91EF919F918F912F91AF
:1001F0001F901FBE1F90189510921401CFCFE09151
:10020000140181E08E0F809314018091BB00F0E017
:10021000E95EFE4F8083DBCF8091BB00E09114014B
:10022000F0E0E95EFE4F808380911501816080934C
:10023000150184E9D6CF85EAD4CF81E091E0089515
:10024000E0ECF0E095838483108288E9818386E086
:10025000828308959091C00095FFFCCF8093C600E3
:1002600008950E942A0190E080E008958091C000E6
:1002700087FFFCCF8091C6000895189518950F92BE
:100280000FB60F921F9211242F933F935F936F939A
:100290007F938F939F93AF93BF938091810090E45E
:1002A0008927809381008091810086FD16C080910E
:1002B00086009091870090932C0180932B01BF9131
:1002C000AF919F918F917F916F915F913F912F910E
:1002D0001F900F900FBE0F901895809186009091FF
:1002E000870020912B0130912C01821B930B6AE334
:1002F00070E00E94AE0270932A0160932901DFCF63
:100300000F920FB60F921F9211245F936F937F93FA
:100310008F939F93AF93BF931D9928C0809127011E
:100320009091280101969093280180932701809154
:1003300027019091280164E170E00E94AE02892BB0
:1003400049F4809123019091240101969093240116
:1003500080932301BF91AF919F918F917F916F9176
:100360005F911F900F900FBE0F9018951C99F2CFC0
:10037000809125019091260101969093260180930A
:100380002501809125019091260164E170E00E9491
:10039000AE02892BF9F680912101909122010196FC
:1003A0009093220180932101D5CF1F921FB61F92F7
:1003B00011248F939F9380911B0190911C01892B95
:1003C000B9F4809178009091790090932001809306
:1003D0001F0181E090E090931C0180931B0181E854
:1003E00080937C009F918F911F901FBE1F90189546
:1003F000809178009091790090931E0180931D0167
:1004000010921C0110921B0182E4EACF5A9AC0E0BC
:1004100086B1807296B19071299A25E32A95F1F7F9
:1004200000002998C11106C0299A45E34A95F1F7C1
:100430000000299820911F0130912001253A314078
:1004400028F15C98892B21F520912301309124011A
:10045000809111019091120128173907C9F062EDBE
:1004600082ED0E947C02809123019091240190935F
:10047000120180931101CE5C8FEF90E722E0815052
:1004800090402040E1F700C00000C2CF5C9ADACF74
:100490000E94A902F0CF0E9452020E94060290E040
:1004A00080E008958AE084B980E385B991E0909373
:1004B000680080936B00E8E7F0E082E484839FEEBD
:1004C000928396819260968396819460968394E15C
:1004D0009AB98093810080E280936F0078948AB10A
:1004E00088668AB9239A83E084BD85BDE0EBF0E09D
:1004F000808384E08183089593E894BDE0EBF0E08D
:10050000908387BD18BC63831482089593E294BDE1
:10051000E0EBF0E090839FEF97BD88BD9383648309
:10052000089593E894BDE0EBF0E093E2908387BDFB
:1005300018BC8FEF83836483089593E294BDE0EB4E
:10054000F0E093E890839FEF97BD88BD63831482AA
:10055000089583E084BD8093B0000895AA1BBB1B5F
:1005600051E107C0AA1FBB1FA617B70710F0A61BB3
:10057000B70B881F991F5A95A9F780959095BC01D4
:08058000CD010895F894FFCFAE
:10058800F80000000200000000310100000000FF38
:04059800FFFFFF0062
:00000001FF
